:100A9D0054696D65723A4E41207365636F6E647370
:100AAD000041524D45440044495341524D45440087
:100ABD00494E545255444552210054696D65723A60
:0B0ACD004E41207365636F6E64730080
:0E0C2700021400070210003202120000C10287
:03001B00020C12C2
:100C1200C0E0C28EE513151370021512758D4B7567
:050C22008B92D0E032CE
:03000300020B5895
:100B5800C0E030930CD2010511E511700E0510802C
:0E0B68000AC201E511151170021510D0E0321D
:03001300020C5587
:030C5500B2973221
:030BAF00120BB274
:100BB200751200751314D3E5139400E512940040E6
:080BC20004D28E80F1C28E22E4
:100BE40075120075130AD3E5139400E512940040BE
:080BF40004D28E80F1C28E22B2
:1009F500D2AFD2AB758910758D4B758B92C28ED2E5
:100A0500AAD2A8D28AC290C291C295C296C297C2F2
:100A150092120B93120C58120BAF120C5B120BAF08
:100A2500120C58120BB2120BB2120C5B120BB21253
:100A35000BB2120C587F0C7E00120800120C5812D3
:040A45000BFC80D056
:070C4000AF11AE10020A49DA
:0A0C3600AF11AE10120A49020BB212
:070C4700AF11AE10020A49D3
:070C4E00AF11AE1002080017
:100BFC00120B38120BB2D290C291120BE4C290D2EB
:060C0C0091120BE480F0E0
:040A4900AB07AA0647
:100A4D007C007D0A12096AEF2430F516AE02AF0361
:100A5D007C007D0A12096AED2430F517E4F518C201
:100A6D00037F808011E518900A9D93600EAF1805E5
:100A7D0018EF93FFD203120BCA80EAC2037F8612CE
:100A8D000BCAD203AF16120BCAD203AF17020BCA91
:100B9300C2037F38120BCAC2037F0E120BCAC203F1
:0C0BA3007F06120BCAC2037F01020BCABE
:100BCA008F0F120B76850FA0A20392B6C2B5D2B7C9
:0A0BDA007F017E00120AD8C2B72284
:100AD800E4FDFCC3ED9FEC9E5015E4FBFA0BBB0054
:0F0AE800010ABA04F8BBFBF50DBD00010C80E458
:010AF70022DC
:100B7600D2A7D2B7C2B6D2B530A70DC2B77F017E13
:0D0B860000120AD8D2B780F0C2B7C2B52263
:010C5E002273
:100AF800E4F519C2037FC08011E519900AAE93602E
:0F0B08000EAF190519EF93FFD203120BCA80EA43
:010B170022BB
:100B1800E4F51AC2037FC08011E51A900AB4936005
:0F0B28000EAF1A051AEF93FFD203120BCA80EA21
:010B3700229B
:100B3800E4F508C2037FC08011E508900ABD936000
:0F0B48000EAF080508EF93FFD203120BCA80EA25
:010B5700227B
:030C5800D2922213
:030C5B00C2922220
:040800008E088F09C6
:100804007C007D0A1209BFEF2430F50CAE08AF0955
:100814007C007D0A1209BFED2430F50DE4F50EC20B
:10082400037F808011E50E900AC793600EAF0E051A
:100834000EEF93FFD203120BCA80EA85080A8509DA
:100844000BC3E50A940050030208DDE50D648094AF
:10085400B05011750D39150CC3E50C648094B0507B
:1008640003750C39C2037F86120BCAD203AF0C1274
:100874000BCAD203AF0D120BCAD3E50C648094B03B
:1008840040028034C3E50D648094B44011D3E50D77
:10089400648094B65008C295D296C2978020C3E56E
:1008A4000D648094B04011D3E50D648094B3500876
:1008B400C295C296D2978006D295C296C297E50C8D
:1008C400B43006E50D64306010150D120BB2E50B63
:0908D400150B7002150A0208451B
:0108DD0022F8
:010C5F002272
:010C60002271
:010C61002270
:010C6200226F
:010C6300226E
:030000000208DE15
:0C08DE00787FE4F6D8FD75812002092522
:10096A00BC000BBE0029EF8DF084FFADF022E4CC71
:10097A00F875F008EF2FFFEE33FEEC33FCEE9DEC3A
:10098A00984005FCEE9DFE0FD5F0E9E4CEFD22ED80
:10099A00F8F5F0EE8420D21CFEADF075F008EF2FCA
:1009AA00FFED33FD4007985006D5F0F222C398FDBB
:0509BA000FD5F0EA2258
:1009BF00C2D5EC30E709B2D5E4C39DFDE49CFCEE53
:1009CF0030E715B2D5E4C39FFFE49EFE12096AC358
:1009DF00E49DFDE49CFC800312096A30D507C3E453
:0609EF009FFFE49EFE22C2
:1008EA000209F5E493A3F8E493A34003F68001F226
:1008FA0008DFF48029E493A3F85407240CC8C3330F
:10090A00C4540F4420C8834004F456800146F6DFDD
:10091A00E4800B0102040810204080900C27E47E3A
:10092A00019360BCA3FF543F30E509541FFEE493D2
:10093A00A360010ECF54C025E060A840B8E493A399
:10094A00FAE493A3F8E493A3C8C582C8CAC583CAC4
:10095A00F0A3C8C582C8CAC583CADFE9DEE780BE7C
:010C350000BE
:00000001FF
