:100A490054696D65723A4E41207365636F6E6473C4
:100A59000041524D45440044495341524D454400DB
:100A6900494E545255444552210054696D65723AB4
:0B0A79004E41207365636F6E647300D4
:080C060002100032021200008E
:03001B00020BE7EE
:100BE700C0E0C28EE513151370021512758D4B7593
:050BF7008B92D0E032FA
:03000300020B30BD
:100B3000C0E030930CD2000511E511700E05108055
:0E0B40000AC200E511151170021510D0E03246
:03001300020C24B8
:010C2400329D
:100BA100751200751314D3E5139400E512940040F7
:080BB10004D28E80F1C28E22F5
:100BB90075120075130AD3E5139400E512940040E9
:080BC90004D28E80F1C28E22DD
:100A8400D2AFD2AB758910758D4B758B92C28ED255
:100A9400AAD2A8C290C291D295D296D297120B6BC9
:0C0AA4007F0C7E00120800120BD180F4C1
:070C0F00AF11AE100209F560
:0A0BFC00AF11AE101209F5020BA1B3
:070C1600AF11AE100209F559
:070C1D00AF11AE1002080048
:100BD100120B10120BA1D290C291120BB9C290D27A
:060BE10091120BB980F037
:0409F500AB07AA069C
:1009F9007C007D0A12096AEF2430F514AE02AF03B8
:100A09007C007D0A12096AED2430F515E4F516C259
:100A1900017F808011E516900A4993600EAF160593
:100A290016EF93FFD201120B8780EAC2017F86126B
:100A39000B87D201AF14120B87D201AF15020B87B6
:100B6B00C2017F38120B87C2017F0E120B87C201A5
:0C0B7B007F06120B87C2017F01020B876E
:100B87008F0F120B4E850FA0A20192B6C2B5D2B736
:0A0B97007F017E00120AB0C2B722EF
:100AB000E4FDFCC3ED9FEC9E5015E4FBFA0BBB007C
:0F0AC000010ABA04F8BBFBF50DBD00010C80E480
:010ACF002204
:100B4E00D2A7D2B7C2B6D2B530A70DC2B77F017E3B
:0D0B5E0000120AB0D2B780F0C2B7C2B522B3
:010C250022AC
:100AD000E4F517C2017FC08011E517900A5A9360B0
:0F0AE0000EAF170517EF93FFD201120B8780EAB5
:010AEF0022E4
:100AF000E4F518C2017FC08011E518900A60936088
:0F0B00000EAF180518EF93FFD201120B8780EA92
:010B0F0022C3
:100B1000E4F508C2017FC08011E508900A6993607E
:0F0B20000EAF080508EF93FFD201120B8780EA92
:010B2F0022A3
:010C260022AB
:010C270022AA
:040800008E088F09C6
:100804007C007D0A1209BFEF2430F50CAE08AF0955
:100814007C007D0A1209BFED2430F50DE4F50EC20B
:10082400017F808011E50E900A7393600EAF0E0570
:100834000EEF93FFD201120B8780EA85080A85091F
:100844000BC3E50A940050030208DDE50D648094AF
:10085400B05011750D39150CC3E50C648094B0507B
:1008640003750C39C2017F86120B87D201AF0C12BB
:100874000B87D201AF0D120B87D3E50C648094B0C3
:1008840040028034C3E50D648094B44011D3E50D77
:10089400648094B65008C295D296C2978020C3E56E
:1008A4000D648094B04011D3E50D648094B3500876
:1008B400C295C296D2978006D295C296C297E50C8D
:1008C400B43006E50D64306010150D120BA1E50B74
:0908D400150B7002150A0208451B
:0108DD0022F8
:010C280022A9
:010C290022A8
:010C2A0022A7
:010C2B0022A6
:010C2C0022A5
:030000000208DE15
:0C08DE00787FE4F6D8FD75812002092522
:10096A00BC000BBE0029EF8DF084FFADF022E4CC71
:10097A00F875F008EF2FFFEE33FEEC33FCEE9DEC3A
:10098A00984005FCEE9DFE0FD5F0E9E4CEFD22ED80
:10099A00F8F5F0EE8420D21CFEADF075F008EF2FCA
:1009AA00FFED33FD4007985006D5F0F222C398FDBB
:0509BA000FD5F0EA2258
:1009BF00C2D5EC30E709B2D5E4C39DFDE49CFCEE53
:1009CF0030E715B2D5E4C39FFFE49EFE12096AC358
:1009DF00E49DFDE49CFC800312096A30D507C3E453
:0609EF009FFFE49EFE22C2
:1008EA00020A84E493A3F8E493A34003F68001F296
:1008FA0008DFF48029E493A3F85407240CC8C3330F
:10090A00C4540F4420C8834004F456800146F6DFDD
:10091A00E4800B0102040810204080900C06E47E5B
:10092A00019360BCA3FF543F30E509541FFEE493D2
:10093A00A360010ECF54C025E060A840B8E493A399
:10094A00FAE493A3F8E493A3C8C582C8CAC583CAC4
:10095A00F0A3C8C582C8CAC583CADFE9DEE780BE7C
:010C0E0000E5
:00000001FF
