:100B270054696D65723A4E41207365636F6E6473E5
:100B37000041524D45440044495341524D454400FC
:100B4700494E545255444552210054696D65723AD5
:0B0B57004E41207365636F6E647300F5
:100D42000211000702090032020B0000C103C102B6
:030D520001080095
:03001B00020D19BA
:100D1900C0E0C28EE50C150C7002150B758D4B7574
:050D29008B92D0E032C6
:03001300020D6774
:030D6700D2023283
:100CA400750B00750C14D3E50C9400E50B9400400F
:080CB40004D28E80F1C28E22F1
:100CBC00750B00750C0AD3E50C9400E50B94004001
:080CCC0004D28E80F1C28E22D9
:100CD400750B00750C03D3E50C9400E50B940040F0
:080CE40004D28E80F1C28E22C1
:03000300020D2EBD
:100D2E00309308750D00750E018006750DFF750E5A
:040D3E00FFD20032AE
:1008DA00D2AFD2AB758910758D4B758B92C28ED201
:1008EA00AAD2A8D28AD288C290C291D295D296D2DE
:1008FA0097C292120C88AF12AE11120A8AE5081436
:10090A00602114602314603414604E24047055125C
:10091A000D033000037508013080E285110F85123E
:10092A00108014120B628037120D56208003E4F5F2
:10093A00083003C93002C675080380C1120ADA20DA
:10094A008003E4F50820030620010375080230033A
:10095A00AC2001A975080480A4120CEC20809EE446
:09096A00F5088099E4F508809479
:100D0300120CD4120C0D120D6DC203C290C291C20B
:060D130095D297D2962252
:100B6200C200E50E2512F512E50D3511F511D3E59A
:100B7200129463E51194004006751100751263C367
:100B8200E5129407E51194005006751100751207DD
:0A0B9200AF12AE11120B9C020CD43E
:100D5600120BED120D6AD201D203AF10AE0F020BC9
:010D66009CF0
:100ADA00E512151270021511AF12AE11120B9CE538
:100AEA001245117002C201C3E5129407E511940080
:100AFA004007C295D296D29722C3E5129404E51113
:100B0A0094004012D3E5129406E51194005007D2DE
:0D0B1A0095C296D29722D295D296C297220C
:100CEC00120C2D308010D290C291120CBCC290D23A
:070CFC0091120CBC80ED22F7
:040A8A00AB07AA0606
:100A8E007C007D0A1209FFEF2430F51AAE02AF0387
:100A9E007C007D0A1209FFED2430F51BE4F51CC223
:100AAE00047F808011E51C900B2793600EAF1C0510
:100ABE001CEF93FFD204120C5180EA120C4DD2049B
:0C0ACE00AF1A120C51D204AF1B020C51E5
:100C8800C2047F38120C51C2047F0E120C51C204E8
:0C0C98007F06120C51C2047F01020C51B7
:040C4D00C2047F86D8
:100C51008F1D120C6B851DA0A20492B6C2B5D2B72E
:0A0C61007F017E00120BCDC2B72206
:100BCD00E4FDFCC3ED9FEC9E5015E4FBFA0BBB005E
:0F0BDD00010ABA04F8BBFBF50DBD00010C80E462
:010BEC0022E6
:100C6B00D2A7D2B7C2B6D2B530A70DC2B77F017E1D
:0D0C7B0000120BCDD2B780F0C2B7C2B52277
:040B9C00AB07AA06F3
:100BA0007C007D0A1209FFEF2430F51AAE02AF0374
:100BB0007C007D0A1209FFED2430F51B120C4DD28A
:0D0BC00004AF1A120C51D204AF1B020C51ED
:100BED00E4F51AC2047FC08011E51A900B389360AA
:0F0BFD000EAF1A051AEF93FFD204120C5180EAC3
:010C0C0022C5
:100C0D00E4F51AC2047FC08011E51A900B3E936083
:0F0C1D000EAF1A051AEF93FFD204120C5180EAA2
:010C2C0022A5
:100C2D00E4F51AC2047FC08011E51A900B4793605A
:0F0C3D000EAF1A051AEF93FFD204120C5180EA82
:010C4C002285
:030D6A00D2922200
:030D6D00C292220D
:040800008E138F14B0
:100804007C007D0A120A54EF2430F517AE13AF149E
:100814007C007D0A120A54ED2430F518E4F519C25F
:10082400047F808011E519900B5193600EAF190578
:1008340019EF93FFD204120C5180EA851315851425
:1008440016C3E515940050030208D9E51864809492
:10085400B050117518391517C3E517648094B0505A
:1008640003751739120C4DD204AF17120C51D20470
:10087400AF18120C51D3E517648094B04002803451
:10088400C3E518648094B44011D3E518648094B629
:100894005008D295C296D2978020C3E518648094FC
:1008A400B04011D3E518648094B35008D295D29621
:1008B400C2978006C295D296D297E517B43006E562
:1008C40018643060101518120CA4E5161516700281
:0508D4001515020845A6
:0108D90022FC
:010D70002260
:010D7100225F
:010D7200225E
:010D7300225D
:010D7400225C
:030000000209737F
:0C097300787FE4F6D8FD7581200209BAF7
:1009FF00BC000BBE0029EF8DF084FFADF022E4CCDC
:100A0F00F875F008EF2FFFEE33FEEC33FCEE9DECA4
:100A1F00984005FCEE9DFE0FD5F0E9E4CEFD22EDEA
:100A2F00F8F5F0EE8420D21CFEADF075F008EF2F34
:100A3F00FFED33FD4007985006D5F0F222C398FD25
:050A4F000FD5F0EA22C2
:100A5400C2D5EC30E709B2D5E4C39DFDE49CFCEEBD
:100A640030E715B2D5E4C39FFFE49EFE1209FFC32D
:100A7400E49DFDE49CFC80031209FF30D507C3E428
:060A84009FFFE49EFE222C
:10097F000208DAE493A3F8E493A34003F68001F2AC
:10098F0008DFF48029E493A3F85407240CC8C33379
:10099F00C4540F4420C8834004F456800146F6DF48
:1009AF00E4800B0102040810204080900D42E47E89
:1009BF00019360BCA3FF543F30E509541FFEE4933D
:1009CF00A360010ECF54C025E060A840B8E493A304
:1009DF00FAE493A3F8E493A3C8C582C8CAC583CA2F
:1009EF00F0A3C8C582C8CAC583CADFE9DEE780BEE7
:010D5500009D
:00000001FF
