:100A210041524D45440044495341524D45440049CA
:100A31004E545255444552210054696D65723A4EE7
:0A0A410041207365636F6E6473005B
:040B8E00021200004F
:03001B00020B6471
:100B6400C0E0C28EE513151370021512758D4B7516
:050B74008B92D0E0327D
:03000300020B7974
:090B7900309303D20032C20032B5
:03001300020B934A
:010B9300322F
:100B1E00751200751314D3E5139400E5129400407A
:080B2E0004D28E80F1C28E2278
:100B360075120075130AD3E5139400E5129400406C
:080B460004D28E80F1C28E2260
:1009F500D2AFD2AB758910758D4B758B92C28ED2E5
:100A0500AAD2A8C290C291D295D296D297120AE8DC
:0C0A15007F0C7E00120800120B4E80F4D3
:010B9400223E
:010B9500223D
:010B9600223C
:070B82007F0C7E0002080059
:100B4E00120AAB120B1ED290C291120B36C290D269
:060B5E0091120B3680F03D
:050B89008E108F112207
:100AE800C2017F38120B04C2017F0E120B04C2012F
:0C0AF8007F06120B04C2017F01020B04F8
:100B04008F0F120ACB850FA0A20192B6C2B5D2B73D
:0A0B14007F017E00120A4BC2B722D7
:100A4B00E4FDFCC3ED9FEC9E5015E4FBFA0BBB00E1
:0F0A5B00010ABA04F8BBFBF50DBD00010C80E4E5
:010A6A002269
:100ACB00D2A7D2B7C2B6D2B530A70DC2B77F017EBF
:0D0ADB0000120A4BD2B780F0C2B7C2B5229C
:010B9700223B
:100A6B00E4F514C2017FC08011E514900A21936054
:0F0A7B000EAF140514EF93FFD201120B0480EAA3
:010A8A002249
:100A8B00E4F515C2017FC08011E515900A2793602C
:0F0A9B000EAF150515EF93FFD201120B0480EA81
:010AAA002229
:100AAB00E4F508C2017FC08011E508900A3093601D
:0F0ABB000EAF080508EF93FFD201120B0480EA7B
:010ACA002209
:010B9800223A
:010B99002239
:040800008E088F09C6
:100804007C007D0A12096AEF2430F50CAE08AF09AA
:100814007C007D0A12096AED2430F50DE4F50EC260
:10082400017F808011E50E900A3A93600EAF0E05A9
:100834000EEF93FFD201120B0480EA85080A8509A2
:100844000BC3E50A940050030208DDE50D648094AF
:10085400B05011750D39150CC3E50C648094B0507B
:1008640003750C39C2017F86120B04D201AF0C123E
:100874000B04D201AF0D120B04D3E50C648094B0C9
:1008840040028034C3E50D648094B44011D3E50D77
:10089400648094B65008C295D296C2978020C3E56E
:1008A4000D648094B04011D3E50D648094B3500876
:1008B400C295C296D2978006D295C296C297E50C8D
:1008C400B43006E50D64306010150D120B1EE50BF7
:0908D400150B7002150A0208451B
:0108DD0022F8
:010B9A002238
:010B9B002237
:010B9C002236
:010B9D002235
:010B9E002234
:010B9F002233
:030000000208DE15
:0C08DE00787FE4F6D8FD75812002092522
:10096A00C2D5EC30E709B2D5E4C39DFDE49CFCEEA8
:10097A0030E715B2D5E4C39FFFE49EFE1209A0C377
:10098A00E49DFDE49CFC80031209A030D507C3E472
:06099A009FFFE49EFE2217
:1008EA000209F5E493A3F8E493A34003F68001F226
:1008FA0008DFF48029E493A3F85407240CC8C3330F
:10090A00C4540F4420C8834004F456800146F6DFDD
:10091A00E4800B0102040810204080900B8EE47ED4
:10092A00019360BCA3FF543F30E509541FFEE493D2
:10093A00A360010ECF54C025E060A840B8E493A399
:10094A00FAE493A3F8E493A3C8C582C8CAC583CAC4
:10095A00F0A3C8C582C8CAC583CADFE9DEE780BE7C
:010B92000062
:1009A000BC000BBE0029EF8DF084FFADF022E4CC3B
:1009B000F875F008EF2FFFEE33FEEC33FCEE9DEC04
:1009C000984005FCEE9DFE0FD5F0E9E4CEFD22ED4A
:1009D000F8F5F0EE8420D21CFEADF075F008EF2F94
:1009E000FFED33FD4007985006D5F0F222C398FD85
:0509F0000FD5F0EA2222
:00000001FF
