:1008C50054696D65723A4E41207365636F6E64734A
:1008D5000041726D65640044697361726D65640001
:0A08E500496E74727564657221009B
:0B097300E4FDFC7F3CFE12080080F554
:080800008E088F098C0A8D0B94
:10080800750E39750F39E4F51312094BC2017F8053
:100818008011E5109008C593600EAF130513EF9390
:10082800FFD20112091480EAC2017FC0120914E53F
:100838000B450A7011E5119008D6936031AF110588
:100848001112090F80EFE50B450A7011E5129008A7
:10085800DC93601AAF12051212090F80EFE51390AE
:1008680008E5936009AF13051312090F80EF850897
:100878000C85090DC3E50C94004041E50F64809494
:10088800B05011750F39150EC3E50E648094B05041
:1008980003750E39C2017F86120914D201AF0E12F8
:1008A8000914D201AF0F120914150F7F647E0012CC
:0C08B80008EFE50D150D70BC150C80B8A4
:0108C4002211
:10094B00C2017F38120914C2017F0E120914C201B1
:0C095B007F06120914C2017F010209147A
:05090F00EF93FFD2018F
:100914008F1412092E8514A0A20192B6C2B5D2B7C3
:0A0924007F017E001208EFC2B72227
:1008EF00E4FDFCC3ED9FEC9E5015E4FBFA0BBB003F
:0F08FF00010ABA04F8BBFBF50DBD00010C80E443
:01090E0022C6
:10092E00D2A7D2B7C2B6D2B530A70DC2B77F017E5D
:0D093E00001208EFD2B780F0C2B7C2B52298
:030000000209678B
:0C096700787FE4F6D8FD7581200209734A
:00000001FF
