:100AC30054696D65723A4E41207365636F6E64734A
:100AD3000041524D454420202020200044495341E9
:100AE300524D4544202000494E545255444552210D
:010AF3000002
:100BFF0002110007020F000702090032020B00006A
:090C0F00C104C103C18201080007
:03001B00020C6173
:100C6100C0E0C28EE50C150C7002150B758D4B752D
:050C71008B92D0E0327F
:03001300020C9844
:090C9800300403D20332C203321E
:100C1900750B00750C14D3E50C9400E50B9400409A
:080C290004D28E80F1C28E227C
:100C3100750B00750C0AD3E50C9400E50B9400408C
:080C410004D28E80F1C28E2264
:100C4900750B00750C03D3E50C9400E50B9400407B
:080C590004D28E80F1C28E224C
:03000300020C7676
:100C7600309308750D00750E018006750DFF750E13
:040C8600FFD2003267
:10080000D2AFD2AB758910758D4B758B92C28ED2DB
:10081000AAD2A8D28AD288C290C291D295D296D2B8
:1008200097C292120BAEAF12AE111209F9E508147D
:10083000602614602814603B1460622404706E30DB
:100840000203120BCAC20230000375080130806037
:1008500085110F8512108016120A8C8049120C8A9D
:10086000208005E4F508D2022003032080FA7508F1
:1008700003803D120942208008120A4DE4F508D297
:1008800002200409200106120A53750802300420D0
:1008900020011D30031A750804D2018013120B7455
:1008A00020800D120A4DE4F508D2028003E4F50819
:0608B000120C4902082DA4
:100BCA00120C49120CAA120B34120CA4C204C290C1
:0B0BDA00C291C295D297D296C20322AE
:100A8C00C200E50E2512F512E50D3511F511D3E571
:100A9C00129463E51194004006751100751263C33E
:100AAC00E5129407E51194005006751100751207B4
:070ABC00AF12AE11020A5750
:0E0C8A00120B14120CA1120C19D201D204226A
:10094200D3E5129400E51194004008E512151270E7
:10095200021511120A53E5124511700A850F11850D
:100962001012C2018002D201C3E5129407E511946C
:10097200004008C295D296D2978024C3E51294040F
:10098200E51194004013D3E5129406E5119400504A
:1009920008D295C296D2978006D295D296C2970275
:0209A2000C192E
:100B7400120B54308016120CA7D290C291120C3171
:0D0B8400120CAAC290D291120C3180E7220F
:0409F900AB07AA0698
:1009FD007C007D0A1209A4EF2430F513AE02AF037B
:100A0D007C007D0A1209A4ED2430F514E4F515C21D
:100A1D00057F808011E515900AC393600EAF150513
:100A2D0015EF93FFD205120BE580EAC2057F861202
:100A3D000BE5D205AF13120BE5D205AF14020BE592
:100BAE00C2057F38120BE5C2057F0E120BE5C2059A
:0C0BBE007F06120BE5C2057F01020BE56B
:100BE5008F16120B918516A0A20592B6C2B5D2B783
:0A0BF5007F017E00120AF4C2B7224D
:100AF400E4FDFCC3ED9FEC9E5015E4FBFA0BBB0038
:0F0B0400010ABA04F8BBFBF50DBD00010C80E43B
:010B130022BF
:100B9100D2A7D2B7C2B6D2B530A70DC2B77F017EF8
:0D0BA10000120AF4D2B780F0C2B7C2B5222C
:0A0A4D00850F11851012AF12AE11D3
:040A5700AB07AA0639
:100A5B007C007D0A1209A4EF2430F513AE02AF031C
:100A6B007C007D0A1209A4ED2430F514C2057F86A3
:100A7B00120BE5D205AF13120BE5D205AF14020B27
:010A8B00E585
:100B1400E4F513C2057FC08011E513900AD49360F5
:0F0B24000EAF130513EF93FFD205120BE580EA16
:010B3300229F
:100B3400E4F513C2057FC08011E513900ADF9360CA
:0F0B44000EAF130513EF93FFD205120BE580EAF6
:010B5300227F
:100B5400E4F513C2057FC08011E513900AEA93609F
:0F0B64000EAF130513EF93FFD205120BE580EAD6
:010B7300225F
:030CA100D29222CA
:030CA400C29222D7
:030CA700D28122D5
:030CAA00C28122E2
:030000000208B63D
:0C08B600787FE4F6D8FD7581200208FD73
:1009A400BC000BBE0029EF8DF084FFADF022E4CC37
:1009B400F875F008EF2FFFEE33FEEC33FCEE9DEC00
:1009C400984005FCEE9DFE0FD5F0E9E4CEFD22ED46
:1009D400F8F5F0EE8420D21CFEADF075F008EF2F90
:1009E400FFED33FD4007985006D5F0F222C398FD81
:0509F4000FD5F0EA221E
:1008C200020800E493A3F8E493A34003F68001F244
:1008D20008DFF48029E493A3F85407240CC8C33337
:1008E200C4540F4420C8834004F456800146F6DF06
:1008F200E4800B0102040810204080900BFFE47E8C
:10090200019360BCA3FF543F30E509541FFEE493FA
:10091200A360010ECF54C025E060A840B8E493A3C1
:10092200FAE493A3F8E493A3C8C582C8CAC583CAEC
:10093200F0A3C8C582C8CAC583CADFE9DEE780BEA4
:010C180000DB
:00000001FF
