:100AC90054696D65723A4E41207365636F6E647344
:100AD9000041524D45440044495341524D4544005B
:100AE900494E545255444552210054696D65723A34
:0B0AF9004E41207365636F6E64730054
:0E0CDA000210000702080032020A0000C102E8
:03001B00020CA232
:100CA200C0E0C28EE50B150B7002150A758D4B75EF
:050CB2008B92D0E0323E
:03001300020CE9F3
:030CE900B297328D
:100C4300750A00750B14D3E50B9400E50A94004074
:080C530004D28E80F1C28E2252
:100C5B00750A00750B0AD3E50B9400E50A94004066
:080C6B0004D28E80F1C28E223A
:03000300020CB735
:100CB700309308750C00750D018006750CFF750DD6
:040CC700FFD2003226
:100A8E00D2AFD2AB758910758D4B758B92C28ED24B
:100A9E00AAD2A8D28AD288C290C291D295D296D228
:100AAE0097C292120C27AF11AE101209F1120CEC74
:0B0ABE00120C43120CEF120C4380F2EC
:100C7300AF11AE101209F1120BAC120CEFC290C2FD
:080C830091C295D297D296228E
:100B0400C200E50D2511F511E50C3510F510D3E5FE
:100B1400119463E51094004006751000751163C3C9
:100B2400E5119407E510940050067510007511073F
:070B3400AF11AE10020B3BF4
:0F0CCB00120B8C120CECD201AF0FAE0E020B3BD2
:100A4100E511151170021510AF11AE10120B3BE537
:100A51001145107002C201C3E5119407E51094001D
:100A61004007C295D296D29722C3E5119404E510AE
:100A710094004012D3E5119406E51094005007D27A
:0D0A810095C296D29722D295D296C29722A6
:100C8B00120BCC308010D290C291120C5BC290D25E
:070C9B0091120C5B80ED22B9
:0409F100AB07AA06A0
:1009F5007C007D0A120966EF2430F519AE02AF03BB
:100A05007C007D0A120966ED2430F51AE4F51BC257
:100A1500037F808011E51B900AC993600EAF1B050B
:100A25001BEF93FFD203120BF080EA120BECD203FB
:0C0A3500AF19120BF0D203AF1A020BF045
:100C2700C2037F38120BF0C2037F0E120BF0C20310
:0C0C37007F06120BF0C2037F01020BF0DD
:040BEC00C2037F863B
:100BF0008F1C120C0A851CA0A20392B6C2B5D2B7F4
:0A0C00007F017E00120B6CC2B722C8
:100B6C00E4FDFCC3ED9FEC9E5015E4FBFA0BBB00BF
:0F0B7C00010ABA04F8BBFBF50DBD00010C80E4C3
:010B8B002247
:100C0A00D2A7D2B7C2B6D2B530A70DC2B77F017E7E
:0D0C1A0000120B6CD2B780F0C2B7C2B52239
:040B3B00AB07AA0654
:100B3F007C007D0A120966EF2430F51DAE02AF036B
:100B4F007C007D0A120966ED2430F51E120BECD2E3
:0D0B5F0003AF1D120BF0D203AF1E020BF00E
:100B8C00E4F51FC2037FC08011E51F900ADA936061
:0F0B9C000EAF1F051FEF93FFD203120BF080EA7D
:010BAB002227
:100BAC00E4F521C2037FC08011E521900AE0936037
:0F0BBC000EAF210521EF93FFD203120BF080EA59
:010BCB002207
:100BCC00E4F522C2037FC08011E522900AE993600C
:0F0BDC000EAF220522EF93FFD203120BF080EA37
:010BEB0022E7
:030CEC00D292227F
:030CEF00C292228C
:040800008E128F13B2
:100804007C007D0A1209BBEF2430F516AE12AF133B
:100814007C007D0A1209BBED2430F517E4F518C2FB
:10082400037F808011E518900AF393600EAF1805DA
:1008340018EF93FFD203120BF080EA85121485138C
:1008440015C3E514940050030208D9E51764809495
:10085400B050117517391516C3E516648094B0505D
:1008640003751639120BECD203AF16120BF0D20338
:10087400AF17120BF0D3E516648094B040028034B5
:10088400C3E517648094B44011D3E517648094B62B
:100894005008D295C296D2978020C3E517648094FD
:1008A400B04011D3E517648094B35008D295D29622
:1008B400C2978006C295D296D297E516B43006E563
:1008C40017643060101517120C43E51515157002E6
:0508D4001514020845A7
:0108D90022FC
:010CF20022DF
:010CF30022DE
:010CF40022DD
:010CF50022DC
:010CF60022DB
:030000000208DA19
:0C08DA00787FE4F6D8FD75812202092128
:10096600BC000BBE0029EF8DF084FFADF022E4CC75
:10097600F875F008EF2FFFEE33FEEC33FCEE9DEC3E
:10098600984005FCEE9DFE0FD5F0E9E4CEFD22ED84
:10099600F8F5F0EE8420D21CFEADF075F008EF2FCE
:1009A600FFED33FD4007985006D5F0F222C398FDBF
:0509B6000FD5F0EA225C
:1009BB00C2D5EC30E709B2D5E4C39DFDE49CFCEE57
:1009CB0030E715B2D5E4C39FFFE49EFE120966C360
:1009DB00E49DFDE49CFC800312096630D507C3E45B
:0609EB009FFFE49EFE22C6
:1008E600020A8EE493A3F8E493A34003F68001F290
:1008F60008DFF48029E493A3F85407240CC8C33313
:10090600C4540F4420C8834004F456800146F6DFE1
:10091600E4800B0102040810204080900CDAE47E8B
:10092600019360BCA3FF543F30E509541FFEE493D6
:10093600A360010ECF54C025E060A840B8E493A39D
:10094600FAE493A3F8E493A3C8C582C8CAC583CAC8
:10095600F0A3C8C582C8CAC583CADFE9DEE780BE80
:010CE800000B
:00000001FF
