:100B560054696D65723A4E41207365636F6E6473B6
:100B66000041524D45442020202020004449534155
:100B7600524D4544202000494E5452554445522179
:100B86000054696D65723A4E41207365636F6E64F9
:020B96007300EA
:100CE10002110007020F000702090032020B000087
:090CF100C104C103C18201080025
:03001B00020D7261
:100D7200C0E0C28EE50C150C7002150B758D4B751B
:050D82008B92D0E0326D
:03001300020DA932
:090DA900300403D20332C203320C
:100CFB00750B00750C14D3E50C9400E50B940040B8
:080D0B0004D28E80F1C28E2299
:100D1300750B00750C0AD3E50C9400E50B940040A9
:080D230004D28E80F1C28E2281
:100D2B00750B00750C03D3E50C9400E50B94004098
:080D3B0004D28E80F1C28E2269
:03000300020D8764
:100D8700309308750D00750E018006750DFF750E01
:040D9700FFD2003255
:1008DA00D2AFD2AB758910758D4B758B92C28ED201
:1008EA00AAD2A8D28AD288C290C291D295D296D2DE
:1008FA0097C292120CC5AF12AE11120B06E508147C
:10090A00602614602814603814605F2404706B3009
:10091A000203120D43C20230000375080130805DE4
:10092A0085110F8512108013120BD38046120D9B6E
:10093A00208005E4F508D2023003FD750803803DE6
:10094A00120AA4208008120B98E4F508D2022004A7
:10095A0009200106120B9E75080230042020011D91
:10096A0030031A750804D2018013120D5B20800D22
:10097A00120B98E4F508D2028003E4F508120D2B55
:03098A0002090758
:100D4300120D2B120C4A120DB5C204C290C291C2ED
:080D530095D297D296C203224B
:100BD300C200E50E2512F512E50D3511F511D3E529
:100BE300129463E51194004006751100751263C3F6
:100BF300E5129407E511940050067511007512076C
:070C0300AF12AE11020BA2BB
:0E0D9B00120C2A120DB2120CFBD201D204224D
:100AA400D3E5129400E51194004008E51215127084
:100AB400021511120B9EE5124511700A850F11855E
:100AC4001012C2018002D201C3E5129407E5119409
:100AD400004008C295D296D2978024C3E5129404AC
:100AE400E51194004013D3E5129406E511940050E7
:100AF40008D295C296D2978006D295D296C2970212
:020B04000CFBE8
:100D5B00120C6A308010D290C291120D13C290D235
:070D6B0091120D1380ED222F
:040B0600AB07AA0689
:100B0A007C007D0A120A19EF2430F51AAE02AF03EF
:100B1A007C007D0A120A19ED2430F51BE4F51CC28B
:100B2A00057F808011E51C900B5693600EAF1C0563
:100B3A001CEF93FFD205120C8E80EA120C8AD205A2
:0C0B4A00AF1A120C8ED205AF1B020C8EED
:100CC500C2057F38120C8EC2057F0E120C8EC2052E
:0C0CD5007F06120C8EC2057F01020C8EFF
:040C8A00C2057F869A
:100C8E008F1D120CA8851DA0A20592B6C2B5D2B7B3
:0A0C9E007F017E00120C0AC2B7228B
:100C0A00E4FDFCC3ED9FEC9E5015E4FBFA0BBB0020
:0F0C1A00010ABA04F8BBFBF50DBD00010C80E424
:010C290022A8
:100CA800D2A7D2B7C2B6D2B530A70DC2B77F017EE0
:0D0CB80000120C0AD2B780F0C2B7C2B522FC
:0A0B9800850F11851012AF12AE1187
:040BA200AB07AA06ED
:100BA6007C007D0A120A19EF2430F51AAE02AF0353
:100BB6007C007D0A120A19ED2430F51B120C8AD22C
:0D0BC60005AF1A120C8ED205AF1B020C8E6B
:100C2A00E4F51AC2057FC08011E51A900B6793603C
:0F0C3A000EAF1A051AEF93FFD205120C8E80EA47
:010C49002288
:100C4A00E4F51AC2057FC08011E51A900B72936011
:0F0C5A000EAF1A051AEF93FFD205120C8E80EA27
:010C69002268
:100C6A00E4F51AC2057FC08011E51A900B7D9360E6
:0F0C7A000EAF1A051AEF93FFD205120C8E80EA07
:010C89002248
:030DB200D29222B8
:030DB500C29222C5
:040800008E138F14B0
:100804007C007D0A120A6EEF2430F517AE13AF1484
:100814007C007D0A120A6EED2430F518E4F519C245
:10082400057F808011E519900B8793600EAF190541
:1008340019EF93FFD205120C8E80EA8513158514E7
:1008440016C3E515940050030208D9E51864809492
:10085400B050117518391517C3E517648094B0505A
:1008640003751739120C8AD205AF17120C8ED205F4
:10087400AF18120C8ED3E517648094B04002803414
:10088400C3E518648094B44011D3E518648094B629
:100894005008D295C296D2978020C3E518648094FC
:1008A400B04011D3E518648094B35008D295D29621
:1008B400C2978006C295D296D297E517B43006E562
:1008C40018643060101518120CFBE516151670022A
:0508D4001515020845A6
:0108D90022FC
:010DB8002218
:010DB9002217
:010DBA002216
:010DBB002215
:0300000002098D65
:0C098D00787FE4F6D8FD7581200209D4C3
:100A1900BC000BBE0029EF8DF084FFADF022E4CCC1
:100A2900F875F008EF2FFFEE33FEEC33FCEE9DEC8A
:100A3900984005FCEE9DFE0FD5F0E9E4CEFD22EDD0
:100A4900F8F5F0EE8420D21CFEADF075F008EF2F1A
:100A5900FFED33FD4007985006D5F0F222C398FD0B
:050A69000FD5F0EA22A8
:100A6E00C2D5EC30E709B2D5E4C39DFDE49CFCEEA3
:100A7E0030E715B2D5E4C39FFFE49EFE120A19C3F8
:100A8E00E49DFDE49CFC8003120A1930D507C3E4F3
:060A9E009FFFE49EFE2212
:100999000208DAE493A3F8E493A34003F68001F292
:1009A90008DFF48029E493A3F85407240CC8C3335F
:1009B900C4540F4420C8834004F456800146F6DF2E
:1009C900E4800B0102040810204080900CE1E47ED1
:1009D900019360BCA3FF543F30E509541FFEE49323
:1009E900A360010ECF54C025E060A840B8E493A3EA
:1009F900FAE493A3F8E493A3C8C582C8CAC583CA15
:100A0900F0A3C8C582C8CAC583CADFE9DEE780BECC
:010CFA0000F9
:00000001FF
