:1009AC0041524D45440044495341524D4544004940
:1009BC004E545255444552210054696D65723A4E5D
:0A09CC0041207365636F6E647300D1
:040B0A0002120000D3
:03001B00020AE0F6
:100AE000C0E0C28EE513151370021512758D4B759B
:050AF0008B92D0E03202
:03000300020AF5F9
:090AF500309303D20032C200323A
:03001300020B12CB
:010B120032B0
:100AC800751200751314D3E5139400E512940040D1
:080AD80004D28E80F1C28E22CF
:100A5600D2AFD2AB758910758D4B758B92C28ED283
:0F0A6600AAD2A87F0C7E00120800120A3680FE6A
:010B130022BF
:010B140022BE
:010B150022BD
:070AFE007F0C7E00020800DE
:030B0F000209F6E2
:050B05008E108F11228B
:100A9200C2017F38120AAEC2017F0E120AAEC20133
:0C0AA2007F06120AAEC2017F01020AAEFC
:100AAE008F0F120A75850FA0A20192B6C2B5D2B7EA
:0A0ABE007F017E001209D6C2B722A4
:1009D600E4FDFCC3ED9FEC9E5015E4FBFA0BBB0057
:0F09E600010ABA04F8BBFBF50DBD00010C80E45B
:0109F50022DF
:100A7500D2A7D2B7C2B6D2B530A70DC2B77F017E15
:0D0A8500001209D6D2B780F0C2B7C2B52268
:010B160022BC
:1009F600E4F514C2017FC08011E5149009AC936040
:0F0A06000EAF140514EF93FFD201120AAE80EA6F
:010A150022BE
:100A1600E4F515C2017FC08011E5159009B2936017
:0F0A26000EAF150515EF93FFD201120AAE80EA4D
:010A3500229E
:100A3600E4F508C2017FC08011E5089009BB936008
:0F0A46000EAF080508EF93FFD201120AAE80EA47
:010A5500227E
:010B170022BB
:010B180022BA
:040800008E088F09C6
:100804007C007D0A120921EF2430F50CAE08AF09F3
:100814007C007D0A120921ED2430F50DE4F50EC2A9
:10082400017F808011E50E9009C593600EAF0E051F
:100834000EEF93FFD201120AAE80EA85080A8509F9
:100844000BC3E50A94004048E50D648094B0501150
:10085400750D39150CC3E50C648094B05003750C08
:1008640039C2017F86120AAED201AF0C120AAED28F
:1008740001AF0D120AAEE50CB43006E50D6430602C
:100884000F150D120AC8E50B150B70B5150A80B1CA
:010894002241
:010B190022B9
:010B1A0022B8
:010B1B0022B7
:010B1C0022B6
:010B1D0022B5
:010B1E0022B4
:030000000208955E
:0C089500787FE4F6D8FD7581200208DCB5
:10092100C2D5EC30E709B2D5E4C39DFDE49CFCEEF1
:1009310030E715B2D5E4C39FFFE49EFE120957C309
:10094100E49DFDE49CFC800312095730D507C3E404
:060951009FFFE49EFE2260
:1008A100020A56E493A3F8E493A34003F68001F20D
:1008B10008DFF48029E493A3F85407240CC8C33358
:1008C100C4540F4420C8834004F456800146F6DF27
:1008D100E4800B0102040810204080900B0AE47EA2
:1008E100019360BCA3FF543F30E509541FFEE4931C
:1008F100A360010ECF54C025E060A840B8E493A3E3
:10090100FAE493A3F8E493A3C8C582C8CAC583CA0D
:10091100F0A3C8C582C8CAC583CADFE9DEE780BEC5
:010B0E0000E6
:10095700BC000BBE0029EF8DF084FFADF022E4CC84
:10096700F875F008EF2FFFEE33FEEC33FCEE9DEC4D
:10097700984005FCEE9DFE0FD5F0E9E4CEFD22ED93
:10098700F8F5F0EE8420D21CFEADF075F008EF2FDD
:10099700FFED33FD4007985006D5F0F222C398FDCE
:0509A7000FD5F0EA226B
:00000001FF
