:1009AB0054696D65723A4E41207365636F6E647363
:0109BB00003B
:10099A001209D41209D51209D61209C81209D78028
:0109AA00EF5D
:0109D4002200
:0109D50022FF
:0109D60022FE
:0709C8007F0C7E0002080015
:0109D70022FD
:0509CF008E108F1122C3
:10096400C2017F38120980C2017F0E120980C201C0
:0C0974007F06120980C2017F0102098089
:100980008F0F120947850FA0A20192B6C2B5D2B748
:0A0990007F017E00120927C2B72282
:10092700E4FDFCC3ED9FEC9E5015E4FBFA0BBB0006
:0F093700010ABA04F8BBFBF50DBD00010C80E40A
:01094600228E
:10094700D2A7D2B7C2B6D2B530A70DC2B77F017E44
:0D09570000120927D2B780F0C2B7C2B52246
:0109D80022FC
:0109D90022FB
:0109DA0022FA
:0109DB0022F9
:040800008E088F09C6
:100804007C007D0A12089CEF2430F50CAE08AF0979
:100814007C007D0A12089CED2430F50DE4F50E12DF
:100824000964C2017F808011E50E9009AB93600ECC
:10083400AF0E050EEF93FFD20112098080EA8508FE
:100844000A85090BC3E50A9400404CE50D648094C5
:10085400B05011750D39150CC3E50C648094B0507B
:1008640003750C39C2017F86120980D201AF0C12C4
:100874000980D201AF0D120980E50CB43006E50DF4
:1008840064306013150D7FFA7E00120927E50B15FD
:070894000B70B1150A80ADE5
:01089B00223A
:0109DC0022F8
:0109DD0022F7
:0109DE0022F6
:0109DF0022F5
:0109E00022F4
:0109E10022F3
:030000000209BC36
:0C09BC00787FE4F6D8FD75812002099ACE
:10089C00C2D5EC30E709B2D5E4C39DFDE49CFCEE77
:1008AC0030E715B2D5E4C39FFFE49EFE1208D2C315
:1008BC00E49DFDE49CFC80031208D230D507C3E410
:0608CC009FFFE49EFE22E6
:1008D200BC000BBE0029EF8DF084FFADF022E4CC0A
:1008E200F875F008EF2FFFEE33FEEC33FCEE9DECD3
:1008F200984005FCEE9DFE0FD5F0E9E4CEFD22ED19
:10090200F8F5F0EE8420D21CFEADF075F008EF2F62
:10091200FFED33FD4007985006D5F0F222C398FD53
:050922000FD5F0EA22F0
:00000001FF
