:100AC00054696D65723A4E41207365636F6E64734D
:100AD0000041524D454420202020200044495341EC
:100AE000524D4544202000494E5452554445522110
:010AF0000005
:100BFC0002110007020F000702090032020B00006D
:090C0C00C104C103C1820108000A
:03001B00020C5E76
:100C5E00C0E0C28EE50C150C7002150B758D4B7530
:050C6E008B92D0E03282
:03001300020C9547
:090C9500300403D20332C2033221
:100C1600750B00750C14D3E50C9400E50B9400409D
:080C260004D28E80F1C28E227F
:100C2E00750B00750C0AD3E50C9400E50B9400408F
:080C3E0004D28E80F1C28E2267
:100C4600750B00750C03D3E50C9400E50B9400407E
:080C560004D28E80F1C28E224F
:03000300020C7379
:100C7300309308750D00750E018006750DFF750E16
:040C8300FFD200326A
:10080000D2AFD2AB758910758D4B758B92C28ED2DB
:10081000AAD2A8D28AD288C290C291D295D296D2B8
:1008200097C292120BABAF12AE111209F6E5081483
:10083000602614602814603814605F2404706B30E4
:100840000203120BC7C20230000375080130805D3D
:1008500085110F8512108013120A898046120C87A9
:10086000208005E4F508D2023003FD750803803DC1
:1008700012093F208008120A4AE4F508D202200437
:1008800009200106120A5075080230042020011DBB
:1008900030031A750804D2018013120B7120800DE9
:1008A000120A4AE4F508D2028003E4F508120C4665
:0308B00002082D0E
:100BC700120C46120CA7120B31120CA1C204C290D0
:0B0BD700C291C295D297D296C20322B1
:100A8900C200E50E2512F512E50D3511F511D3E574
:100A9900129463E51194004006751100751263C341
:100AA900E5129407E51194005006751100751207B7
:070AB900AF12AE11020A5456
:0E0C8700120B11120C9E120C16D201D2042276
:10093F00D3E5129400E51194004008E512151270EA
:10094F00021511120A50E5124511700A850F118513
:10095F001012C2018002D201C3E5129407E511946F
:10096F00004008C295D296D2978024C3E512940412
:10097F00E51194004013D3E5129406E5119400504D
:10098F0008D295C296D2978006D295D296C2970278
:02099F000C1634
:100B7100120B51308016120CA4D290C291120C2E7D
:0D0B8100120CA7C290D291120C2E80E72218
:0409F600AB07AA069B
:1009FA007C007D0A1209A1EF2430F513AE02AF0381
:100A0A007C007D0A1209A1ED2430F514E4F515C223
:100A1A00057F808011E515900AC093600EAF150519
:100A2A0015EF93FFD205120BE280EAC2057F861208
:100A3A000BE2D205AF13120BE2D205AF14020BE29E
:100BAB00C2057F38120BE2C2057F0E120BE2C205A3
:0C0BBB007F06120BE2C2057F01020BE274
:100BE2008F16120B8E8516A0A20592B6C2B5D2B789
:0A0BF2007F017E00120AF1C2B72253
:100AF100E4FDFCC3ED9FEC9E5015E4FBFA0BBB003B
:0F0B0100010ABA04F8BBFBF50DBD00010C80E43E
:010B100022C2
:100B8E00D2A7D2B7C2B6D2B530A70DC2B77F017EFB
:0D0B9E0000120AF1D2B780F0C2B7C2B52232
:0A0A4A00850F11851012AF12AE11D6
:040A5400AB07AA063C
:100A58007C007D0A1209A1EF2430F513AE02AF0322
:100A68007C007D0A1209A1ED2430F514C2057F86A9
:100A7800120BE2D205AF13120BE2D205AF14020B30
:010A8800E28B
:100B1100E4F513C2057FC08011E513900AD19360FB
:0F0B21000EAF130513EF93FFD205120BE280EA1C
:010B300022A2
:100B3100E4F513C2057FC08011E513900ADC9360D0
:0F0B41000EAF130513EF93FFD205120BE280EAFC
:010B50002282
:100B5100E4F513C2057FC08011E513900AE79360A5
:0F0B61000EAF130513EF93FFD205120BE280EADC
:010B70002262
:030C9E00D29222CD
:030CA100C29222DA
:030CA400D28122D8
:030CA700C28122E5
:030000000208B340
:0C08B300787FE4F6D8FD7581200208FA79
:1009A100BC000BBE0029EF8DF084FFADF022E4CC3A
:1009B100F875F008EF2FFFEE33FEEC33FCEE9DEC03
:1009C100984005FCEE9DFE0FD5F0E9E4CEFD22ED49
:1009D100F8F5F0EE8420D21CFEADF075F008EF2F93
:1009E100FFED33FD4007985006D5F0F222C398FD84
:0509F1000FD5F0EA2221
:1008BF00020800E493A3F8E493A34003F68001F247
:1008CF0008DFF48029E493A3F85407240CC8C3333A
:1008DF00C4540F4420C8834004F456800146F6DF09
:1008EF00E4800B0102040810204080900BFCE47E92
:1008FF00019360BCA3FF543F30E509541FFEE493FE
:10090F00A360010ECF54C025E060A840B8E493A3C4
:10091F00FAE493A3F8E493A3C8C582C8CAC583CAEF
:10092F00F0A3C8C582C8CAC583CADFE9DEE780BEA7
:010C150000DE
:00000001FF
